:060000000A128A110C280F
:10000800FE00030EF1000A08F2000A128A11A9285C
:100018000A128A110F2883133030FD000030FE00C9
:10002800BA30FF00203084000A128A119A200A127E
:100038008A11F40183010A128A116C2883120313AE
:10004800061B272828282A28F401F40A061F2D2829
:100058002E2838287403031D322833283828013005
:10006800F00070088807F401861B3B283C283E28CE
:100078000230F400861F412842284B2802307406BB
:10008800031D472848284B2801308802F40108003E
:10009800831603178801043089008316031385012A
:1000A800870188018312031385018601870188016E
:1000B8008316031381138B170B178B150C179517C2
:1000C8001517961716170F128F160F170F1408000B
:1000D8000A128A114C200A128A110A128A118120E6
:1000E8000A128A11831203139F187B287C2876280A
:1000F8009F1476280A128A110C28831203139F135F
:100108001F17831603139F121F129F1383120313C3
:100118009F161F169F111F111F142130F300F30B98
:10012800932808007E088A007F0882000A128A1134
:1001380096200A128A118000840A04087D06031991
:100148000034FF0A0319FE0A9A280B1CAC28AD28B4
:10015800B3280A128A1122200A128A110B10720877
:100168008A00710E8300FE0E7E0E09003F340634AD
:100178005B344F3466346D347D3407347F346734F0
:0C01880077347C3439345E3479347134BF
:08400000FF3FFF3FFF3FFF3FC0
:04400E00D420FF3F7C
:00000001FF
