:060000000A128A110C280F
:10000800FE00030EF2000A08F3000A128A112E29D4
:100018000A128A110F2883133030FD000130FE00C8
:100028008830FF00203084000A128A1179210A12D0
:100038008A11BA01BB01F501F601F701F801830144
:100048000A128A114B2983120313B501B11F2D28F7
:100058002E283528B009B109B00A0319B10AB5012B
:10006800B50AB31F382839284228B209B309B20A99
:100078000319B30A0130F4007408B506B601B701D4
:1000880030083104031949284A288128B401B40AE0
:10009800582801300310B00DB10DFF3E031D4E2846
:1000A8000130F4007408B407B11F5B285C284D28A0
:1000B80001300310B60DB70DFF3E031D5D28310852
:1000C8003302031D692830083202031C6C286D288E
:1000D80074283008B2023108031CB303B302361483
:1000E80001300310B10CB00CFF3E031D7528013020
:1000F800B402031D802881285C2835080319852847
:1001080086288B28B609B709B60A0319B70A37082B
:10011800B1003608B00008008312031308087702FC
:10012800031C972898289A2807159B2807117708F1
:100138000F39B800B9013808F5003908F600103051
:10014800B0000030B1007708B800B9013808B20033
:100158003908B3000A128A1127200A128A11831259
:1001680003133108BB003008BA007508203E84002C
:1001780083130008850007148710073083120313C0
:10018800B9007C30B800B80BC728B90BC7280000E5
:10019800831203133A08203E840083130008850065
:1001A80007108714073083120313B9007C30B80096
:1001B800B80BDC28B90BDC280000080083120313F5
:1001C800061BE728E828EA28F801F80A061FED28A0
:1001D800EE28F8287803031DF228F328F8280130C0
:1001E800F00070088807F801861BFB28FC28FE2809
:1001F8000230F800861F012902290B2902307806EF
:10020800031D072908290B2901308802F801080075
:1002180083160317880104308900831603138501A8
:100228008617061787018801831203138501860143
:10023800870188018316031381138B170B178B15FE
:100248000C1795171517961716170F128F160F17E5
:100258000F1408000B1C3129322938290A128A1177
:10026800E2200A128A110B10831203130C1F3D2976
:100278003E2944290C130A128A1198210A128A115C
:1002880073088A00720E8300FE0E7E0E09000A12A1
:100298008A110C210A128A110A128A1160210A1283
:1002A8008A11831203139F185A295B2955299F1411
:1002B80055290A128A110C28831203139F131F173A
:1002C800831603139F121F129F13831203139F1683
:1002D8001F169F111F111F142130F400F40B7229EF
:1002E80008007E088A007F0882000A128A11752198
:1002F8000A128A118000840A04087D060319003452
:10030800FF0A0319FE0A79293F3406345B344F3457
:1003180066346D347D3407347F34673477347C3405
:1003280039345E3479347134831203131E08F700AC
:100338000D30F100FB30F000F00BA029F10BA029E3
:04034800A5290800DB
:08400000FF3FFF3FFF3FFF3FC0
:04400E00D420FF3F7C
:00000001FF
