:060000000A128A110E280D
:10000800FE00030EF4000408F5000A08F6000A12C0
:100018008A1137290A128A11112883133030FD00FA
:100028000230FE001430FF00203084000A128A11CA
:1000380005220A128A11BB01BC01BD01BE01BF0124
:10004800C001C101C201C301C401F701F801F901EE
:10005800FA01FB01FC0183010A128A1133280A12F2
:100068008A1145220A128A110A128A113D220A129D
:100078008A110A128A1199220A128A110A128A11FD
:1000880059220A128A110A128A1181220A128A1125
:100098000A128A1179220A128A110A128A11752201
:1000A8000A128A110A128A1185220A128A110A1260
:1000B8008A1189220A128A110A128A118D220A12B9
:1000C8008A110A128A117D220A128A110A128A11C9
:1000D800A9220A128A110A128A11A7220A128A115F
:1000E8000A128A11AB220A128A110A128A115E2296
:1000F8000A128A110A128A1153220A128A110A1242
:100108008A11A5220A128A110A128A119D220A123C
:100118008A110A128A116D220A128A110A128A1188
:1001280071220A128A110A128A1191220A128A115C
:100138000A128A1195220A128A110A128A11682251
:100148000A128A110A128A1163220A128A110A12E1
:100158008A11A1220A128A110A128A114C220A1241
:100168008A110A128A1132220A128A11EC30831279
:1001780003138100831203139F143C08BA003B0841
:10018800B9000A128A11BB210A128A11BE280A1262
:100198008A110E2883120313B601B11FD428D5285B
:1001A800DC28B009B109B00A0319B10AB601B60AC8
:1001B800B31FDF28E028E928B209B309B20A0319F6
:1001C800B30A0130B4003408B606B701B8013008E4
:1001D80031040319F028F1282829B501B50AFF28A8
:1001E80001300310B00DB10DFF3E031DF52801309D
:1001F800B4003408B507B11F02290329F4280130D7
:100208000310B70DB80DFF3E031D04293108330252
:10021800031D102930083202031C132914291B2935
:100228003008B2023108031CB303B302371401309B
:100238000310B10CB00CFF3E031D1C290130B502A0
:10024800031D272928290329360803192C292D29B4
:100258003229B709B809B70A0319B80A3808B1002A
:100268003708B00008000B1D3A293B2964290B11F7
:10027800EC3083120313810077087804031D4529A5
:10028800462953297808F1007708F0000A128A11E4
:10029800E0210A128A110130F7000030F8007703D4
:1002A8007804031D5829592964297808F10077082A
:1002B800F0000A128A11E0210A128A11F701F801E6
:1002C8000B1C672968296E290B100A128A118921CB
:1002D8000A128A11831203130C1F732974298029A7
:1002E8000C130A128A1124220A128A117108831225
:1002F8000313BC007008BB0076088A0075088400E8
:10030800740E8300FE0E7E0E090083120313061B73
:100318008E298F2993290130F9000030FA00061F31
:1003280096299729A32979037A04031D9C299D29D5
:10033800A3290130F00070088807F901FA01861B2B
:10034800A629A729AB290230F9000030FA00861F38
:10035800AE29AF29BA29023079067A04031DB529D6
:10036800B629BA2901308802F901FA010800831276
:10037800031308081E02031CC229C329C52907152F
:10038800C62907110F303905C30000303A05C400EB
:100398001030B0000030B1003A08B3003908B2009C
:1003A8000A128A11CE200A128A1183120313310805
:1003B800C2003008C100080070087104031DE52957
:1003C800E629F029831203134308203E840083138F
:1003D800000885000714871070037104031DF529B0
:1003E800F629002A831203134108203E8400831350
:1003F800000885000710871408007E088A007F0817
:1004080082000A128A1101220A128A118000840AC3
:1004180004087D0603190034FF0A0319FE0A052A99
:100428003F3406345B344F3466346D347D340734DE
:100438007F34673477347C3439345E3479347134BA
:10044800831203131E08F200F3017208FB007308FD
:10045800FC007C08F1007B08F000080083120313FD
:100468001F14203083120313B000B00B392A000088
:100478000800831203138501860187018801890119
:100488000800831603130F178F160F120F14080096
:10049800831203139F161F169F111F11080083163E
:1004A8000313011581140114080010308316031773
:1004B800890008008316031381128111080083162E
:1004C80003139F121F120800831203139F131F1791
:1004D80008008316031395170800831603131517CE
:1004E8000800831603138801080083160313870185
:1004F800080083160313811308008316031385016C
:1005080008008316031386170800831603130617BB
:10051800080083160313061408008316031396179E
:10052800080083160313161708008316031788019B
:100538000800831603130C170800831603139F1370
:1005480008008B1508000B1708008B1708008B167E
:02055800080099
:08400000FF3FFF3FFF3FFF3FC0
:04400E00D420FF3F7C
:00000001FF
